:020000040800F2
:100000000050002075690008C3120008C5120008DE
:10001000C7120008C9120008CB1200080000000037
:100020000000000000000000000000001152000865
:10003000CD12000800000000B1520008F55200087F
:10004000BD690008BD690008BD690008BD690008F8
:10005000BD690008BD690008BD690008BD690008E8
:10006000BD690008BD690008BD690008BD690008D8
:10007000D1120008E1120008F11200080113000873
:100080001113000821130008BD690008BD690008AC
:1000900031130008BD690008BD690008BD6900088A
:1000A000BD69000841130008BD690008BD6900086A
:1000B000BD690008BD690008BD690008BD69000888
:1000C000BD690008BD690008BD690008BD69000878
:1000D000BD69000851130008651300087513000876
:1000E000BD690008BD690008BD6900080000000086
:1000F0000000000000000000000000000000000000
:0C01000000000000000000005FF808F1A3
:1001100010B5054C237833B9044B13B10448AFF341
:1001200000800123237010BD880000200000000023
:10013000847F000808B5034B1BB103490348AFF3A4
:10014000008008BD000000008C000020847F0008B3
:1001500010F8012B11F8013B012A28BF9A42F7D071
:10016000D01A7047034613F8012B002AFBD1181A46
:100170000138704703685A004CBF43F0004323F036
:1001800000431844704700BF2DE9F84329B34F1EC0
:10019000044615463E464FF0000808EB060101EB09
:1001A000D171491004EBC1094846FFF7E3FF03464C
:1001B000C80008308F42204409D0AB4209D8FFF76D
:1001C000D9FF0138A8420AD201F10108E5E7AB42A4
:1001D00005D9884501D04E1EDFE74FF0000948469B
:1001E000BDE8F883012807D0022807D0044B002877
:1001F0000CBF1846002070470248704702487047FD
:10020000A9080008AD080008B108000830B5244B63
:10021000044683B08D1E3BB3284601A9AFF300808E
:10022000E8B101992A46FFF7AFFF0146B8B1FFF7E1
:10023000A1FF4B68A064012B2DD0002B26DB081DED
:10024000FFF798FF0023C4E913030368002B12DBB8
:10025000FFF790FF03460020236103B030BD002369
:100260000920236103B030BD0E4B0F491846C91A4F
:10027000C9100191D6E7C3F30360FFF7B3FF00286D
:10028000206114BF0020092003B030BD0123081DE8
:10029000C4E91303D9E7002305202361DDE700BF8C
:1002A000000000006C860008B4880008036810B5E0
:1002B000DA07044606D49B0700F1480009D500F090
:1002C00041FC2368590709D51A070ED5DB0613D55B
:1002D00010BD00F02FFC23685907F5D404F1D000BD
:1002E00000F038FC23681A07F0D404F5A87000F079
:1002F00039FC2368DB06EBD404F5E870BDE8104058
:1003000000F074BC0346006800B11844704700BF99
:1003100009207047704700BF70B504460E4620465E
:10032000316CFFF773FF054688B9326C2146626174
:1003300001203246236998470828F0D0072806D1C3
:100340002846316CFFF7E6FF301D00F0E7FB07F0B1
:100350002DF800BF2DE9F04706464FF0000CADF533
:10036000727D03AD0C1D91460FCC0FC50FCC0FC590
:100370000FCC0FC594E80F00F768D6F8188085E811
:100380000F0002ADC5F800C021E02B6C4FF4F072F5
:10039000736129467AA807F03FF8314634697AAA92
:1003A0005046A047889BCDE9005804466B644946F7
:1003B000334632460120B8470346F0B94FF4F07295
:1003C00028467AA9994607F027F8082C1BD1304611
:1003D000296CFFF71BFF09F1090904465FFA89FA46
:1003E0000028D2D0AB6B3246CDE9005801206B64B7
:1003F0004AF010013346B84700B1092420460DF5F4
:10040000727DBDE8F087072CF7D14846296CFFF7CD
:1004100081FF03A800F082FB406C70474FF0FF3C67
:10042000F0B5CB6BF9B00B640E1D01AC0F46054661
:100430000FCE0FC40FCE0FC40FCE0FC496E80F001F
:1004400084E80F00CDF800C006E06A4629462B6913
:1004500098470828044608D128461099FFF7D6FE89
:100460000028F2D0092079B0F0BD6846FFF71EFFE2
:10047000062CF7D139462846FFF74EFF30B4DD6B26
:10048000C160826119461D64002230BC62E700BF72
:1004900070B54369C6680B64AEB90A460369044681
:1004A0000D46014602209847072805D008280FD19D
:1004B00029462046FFF730FF3046296CFFF72AFF18
:1004C000281D00F02BFB0122FFF744FF06F06EFF12
:1004D00006F06CFFC2682AB110B4CC6B00220C6429
:1004E00010BC37E79AE700BF704700BF836801463A
:1004F0000BB1012018477047012912D009D873B9F0
:100500000F2A0CD800EB820042681846009B1A6044
:1005100070470339012994BF01200220704702204F
:1005200070470846704700BF002310B584B003AC85
:100530000A4600941946FFF7DFFF039804B010BD88
:10054000012912D009D873B90F2A0CD8009900EBF1
:10055000820209681846516070470339012994BF27
:10056000012002207047022070470846704700BFF4
:1005700030B500230D4685B003AC039219462A46D8
:100580000094FFF7DDFF05B030BD00BF4FF0FF3C2A
:10059000F0B5D36BADF50F7D1364151D17AC074691
:1005A0000E460FCD0FC40FCD0FC40FCD0FC495E86D
:1005B0000F0084E80F00CDF858C012E00C2116A8F7
:1005C0006A46FFF7D5FF314616A8B84778B969469D
:1005D0000820049B16AA98470528044608D0092835
:1005E00005D068462699FFF711FE0028E6D00924B9
:1005F00016A8FFF75BFE20460DF50F7DF0BD00BF8E
:100600002DE9F04FCC6C174654F8042B89B00D46F9
:100610001E4600F003080694002B79D00221130C2B
:100620008DF81D301204DBB204EB830405928DF8C3
:100630001C102B6DB8F1020F08BFAC6B13F0010357
:100640000CD0384605A900F06BFB18B9082009B09A
:10065000BDE8F08F092009B0BDE8F08FD4F800A004
:10066000BAF1000FEDD0019300F008030293022EBF
:100670004AD0B4F800A0B4F802900434AA6C0F2158
:10068000384629F0010B9344FFF74EFF834539D8D4
:100690002AF001025A44824294BF002001204FEA0E
:1006A000490303F002030AF0010A43EA0A03012B9B
:1006B00049D0022B32D0002BCCD1B8F1000F02D0A0
:1006C000002840F0CD800434D4F800A0BAF1000F27
:1006D000CDD1384605A900F023FB0028BAD1019BF3
:1006E000002BB3D00F213846FFF71EFF0E21024624
:1006F0003846FFF73DFF38460F216A4AFFF738FFBB
:100700000720A8E70020CAE7D4F804900834B5E72A
:10071000032312020592ADF81C308AE7236823F008
:10072000004BB8F1000F45D128B1029A002A5CD0E5
:10073000BBF1000F74D0002B00DA04340BF1010B75
:1007400004EB8B04C0E7B8F1000F19D1B0B1D4E9C4
:100750000023991C4FEAD2723FF47CAF05F1580197
:100760000133049100F09080201DFFF7CBFD04AB16
:100770000146284606F048F900285BD10834A3E773
:100780000D213846D5F82090FFF7CEFE8145F5D1F2
:10079000AB6A9C42F2D12046FFF7ECFC0F210246E7
:1007A0003846FFF7E5FE38462A460021FFF7E0FE0F
:1007B000072050E70D213846D5F82090FFF7B4FE0A
:1007C000814501D02368B6E7AB6A9C42FAD1042286
:1007D0000021C5E90B12A318C5F828B06B63236884
:1007E0008B4259DB01230193A8E705F15803CDF8AB
:1007F0000C809146B04604F1040A1E460EE05046B5
:100800000496FFF77FFD0022014604AB284606F060
:10081000FBF809F101090AF1040AE0B9D945EED162
:1008200038460D21FFF780FE049B2862C5E9093494
:10083000062010E781460D213846FFF775FEB9F115
:10084000020F286225D12B46049A43F82C2F6B62A5
:100850000620AC62FFE646462368DDF80C806AE7B6
:100860002046FFF787FC02460434AC632846144652
:1008700006F028F900283FF4EDAE384622460F2155
:10088000FFF776FE0720E6E638460D21FFF74CFE1F
:100890002862049B6B62DBE70BF1010004EB800034
:1008A0007AE700BFF97200080023A9E60123A7E652
:1008B0000223A5E62DE9F043064615461C46C3B0C3
:1008C000042900F2B280DFE801F09650B02703005F
:1008D000002C40F0AA80102A00F2A7800368D806F6
:1008E00000F1EB8020AF384600F08AF900230120A8
:1008F000B26B00FA03F129421CBF52F8041B47F8FF
:1009000023100133042BF4D13846B26300F06EF9A2
:10091000002043B0BDE8F083032C40F0868094B201
:1009200004EB1243102B4FEA12457ED803681F07D1
:1009300000F1CB8020AF384600F036F907EBC50157
:10094000B56B54B10B4601EBC401E81AE4001A5828
:1009500043F8042B8B42FAD125443846B56300F0A6
:1009600001F9002043B0BDE8F083012C4FEA1248A2
:1009700095B256D0052C58D108EB0509B9F1200FD6
:1009800053D8B8F10F0F73D9A946002D40F08480D9
:10099000B36B65B320AF4FF0000907EBC807043F06
:1009A00003EBC50553F8041BAB4247F8041FF9D10C
:1009B000B9F1000F0FD06F464146102938BF102102
:1009C00007EBC101843903EBC90553F8040BAB42B3
:1009D00041F8040FF9D1012C7FD0B8F10F0FB563A6
:1009E00042D9B9F1000F02D0684600F0B3F80020F8
:1009F00043B0BDE8F083C4B923460124826B371DA0
:100A0000A8B204FA03F101421CBF52F8041B47F8D4
:100A100023100133102BF4D115F40050E7D1B26349
:100A200004E008EB0503102B03D9022043B0BDE816
:100A3000F083B8F10F0FF8D83368DA0706D53046DF
:100A400023F0030340F8483B00F078F820AF384625
:100A500000F074F8B36B002D9DD11D460435384667
:100A6000B56300F067F8C2E720A800F06BF8B8E7BC
:100A7000B9F1100F3FD9A9F110093368D90708D58A
:100A8000304623F0010343F0020340F8483B00F0F6
:100A90005DF8B9F1000F31D033685A071FD4B8F1AF
:100AA0000F0F24D96F46C8F11005384600F056F8EC
:100AB000002DB36B80DD20AF6FE723F010033360B0
:100AC00006F5E87000F09CF80CE723F008030360DB
:100AD00000F5A87000F068F82CE720AFBEE73046BC
:100AE00023F0040340F8D03B00F038F8D7E720A803
:100AF00000F02CF8D6E74FF00009BEE7B8F10F0F71
:100B00003FF646AF20AF384600F020F8B36B002D1B
:100B10007FF441AF384600F015F868E700F1340182
:100B200091E838009C46A6464CF8045D90E8FF0F1B
:100B3000E54600BD90EC210B704700BF80EC210B17
:100B4000704700BF90EC200B704700BF80EC200B7B
:100B5000704700BFD0EC200B704700BFC0EC200BEB
:100B6000704700BFF0EC0201F0EC0211F0EC022142
:100B7000F0EC0231F0EC0241F0EC0251F0EC0261D9
:100B8000F0EC0271F0EC0281F0EC0291F0EC02A1C9
:100B9000F0EC02B1F0EC02C1F0EC02D1F0EC02E1B9
:100BA000F0EC02F1704700BFE0EC0201E0EC021152
:100BB000E0EC0221E0EC0231E0EC0241E0EC025119
:100BC000E0EC0261E0EC0271E0EC0281E0EC029109
:100BD000E0EC02A1E0EC02B1E0EC02C1E0EC02D1F9
:100BE000E0EC02E1E0EC02F1704700BFB0FC0181F3
:100BF000B0FC0191B0FC01A1B0FC01B1704700BF95
:100C0000A0FC0181A0FC0191A0FC01A1A0FC01B10C
:100C1000704700BFEC4600B52DE900502DE9FF1FDD
:100C20004FF000032DE90C0001A9FFF7F7FBDDF8F9
:100C300040E012B0704700BFEC4600B52DE900500F
:100C40002DE9FF1F4FF000032DE90C0001A9FFF76C
:100C50001FFCDDF840E012B0704700BFEC4600B565
:100C60002DE900502DE9FF1F4FF000032DE90C0086
:100C700001A9FFF72FFCDDF840E012B0704700BF7C
:100C8000EC4600B52DE900502DE9FF1F4FF00003A1
:100C90002DE90C0001ABFFF7F1FBDDF840E012B0ED
:100CA000704700BFEC4600B52DE900502DE9FF1F4D
:100CB0004FF000032DE90C0001AAFFF767FCDDF8F7
:100CC00040E012B0704700BF027A7AB9437AA3B10C
:100CD00003214268013B10B443721368141D017272
:100CE0001A024460026010BC180E70470368013A93
:100CF00002721A020260180E7047B020704700BFDF
:100D0000002300B585B003AA009219460C22FFF714
:100D1000F3FB039805B05DF804FB00BFF0E700BFEC
:100D20002DE9F04305460E464FF0000885B03046E9
:100D3000FFF7CAFFB028044600F0B180070620D5AF
:100D400000F0F003802B4DD0902B36D0A02B60D03C
:100D5000B02B73D0C02B00F08A8000F0F803D02BAA
:100D60000BD100F00702013242F4002205230121D9
:100D70002846FFF79FFD0028D9D0092005B0BDE81F
:100D8000F08300230DF10C0919460D228700CDF8E0
:100D900000902846FFF7B0FBFFB2039B04376006C4
:100DA0004CBFDF1BFF1800230D2219462846CDF843
:100DB00000900397FFF7C4FBB9E700F00D030D2B7C
:100DC000DBD0002303AF194600F00F02009728463E
:100DD000FFF792FB00230D22194628460097FFF7E4
:100DE000AFFBA4E73046FFF76FFF24022043B0F5C6
:100DF000004FC2D00023040119462846A2B2FFF7D3
:100E000059FD0028B9D114F4004F18BF4FF0010864
:100E10008DE7C3434FF47F6203F007031A410023B9
:100E2000010702F47F6248BF42F480421946284617
:100E3000FFF740FD00283FF47AAF9EE7B12833D09A
:100E4000B22800F08B80B32839D000F0FC03B42B1B
:100E500093D0012300F007021A4442F400221946FD
:100E60002846FFF727FD00283FF461AF85E7C62835
:100E700042D0C7284CD000F0F803C02B5BD0C82864
:100E800060D0C9287FF479AF3046FFF71DFF020319
:100E900000F00F0002F470220130024366E7B8F15F
:100EA000000F18D0002069E73046FFF70DFF02461B
:100EB00000283FF462AF10F0F003D0D05DE7304679
:100EC000FFF702FF0123010300F00F0001F470217E
:100ED000C2180A43C3E703AC43460E2241462846E4
:100EE0000094FFF709FB284643460F224146009431
:100EF000FFF726FB404641E73046FFF7E5FE0103DA
:100F000000F00F0001F47021421C03230A43A6E7FE
:100F10003046FFF7D9FE024600283FF42EAF10F00E
:100F2000F0037FF42AAF04212846FFF7C3FC002812
:100F30003FF4FDAE21E700F00F020132032342F43B
:100F400020228CE73046FFF7BFFE00F0F00200F0F1
:100F50000F031032013343EA023207E700230DF199
:100F60000C090D2219462846CDF80090FFF7C4FA67
:100F70003046FFF7A9FE02064FF002040CD5039B92
:100F800000F07F00A040034430460393FFF79CFE2F
:100F9000030604F10704F2D40023039A00F07F0053
:100FA00000FA04F402F50172144419460D22284691
:100FB000CDF800900394FFF7C3FAB8E610B5032408
:100FC000C36C84B05A688DF80C40DC791202083387
:100FD000084601A901928DF80D400293FFF7A0FE8B
:100FE00004B010BD08B5FFF799FE806C08BD00BFC6
:100FF00008B5FFF793FEC06CC379023300EB8300A2
:1010000008BD00BF30B589B000240494059406944F
:101010000794294B9A6942F010029A619A6902F08A
:1010200010020092009A9A6942F020029A619A692D
:1010300002F020020192019A9A6942F004029A6138
:101040009A6902F004020292029A9A6942F0080236
:101050009A619B6903F008030393039B174D224693
:101060004FF40051284601F023F94FF40053049344
:101070000123059306940223079304A9284601F04F
:1010800007F84FF4404304930324059404A9284629
:1010900000F0FEFF48F2F3130493059404A90848F6
:1010A00000F0F6FF4FF2FF330493059404A90548BE
:1010B00000F0EEFF09B030BD00100240001001400A
:1010C00000080140000C014000B583B01E4B5A6976
:1010D00042F001025A615B6903F001030193019B35
:1010E000002205210C2001F09DFA0C2001F0CEFA1F
:1010F000002205210D2001F095FA0D2001F0C6FA1D
:10110000002205210E2001F08DFA0E2001F0BEFA1A
:10111000002205210F2001F085FA0F2001F0B6FA18
:1011200000220521102001F07DFA102001F0AEFA16
:1011300000220521112001F075FA112001F0A6FA14
:1011400003B05DF804FB00BF0010024008B508487A
:10115000084B03604FF4E133436000238360C360B6
:1011600003610C2242618361C36101F06BFB08BD26
:10117000F03800200038014008B50848084B0360EB
:101180004FF4E133436000238360C36003610C22AA
:1011900042618361C36101F055FB08BD3039002015
:1011A0000044004008B50848084B03604FF4E133A1
:1011B000436000238360C36003610C22426183614A
:1011C000C36101F03FFB08BD7837002000480040B4
:1011D00008B50948094B036010234360002383606E
:1011E000C36003614361037643768376C3760377F6
:1011F000437704F03BF908BDB83700200064004095
:1012000008B5012003F014FCFBE730B591B00024D1
:1012100009940B940C9401940294039404940594FF
:10122000012206924FF48033079308940A92022514
:101230000D950E934FF4E0130F9306A800F0F0FB0A
:101240000F230193029503944FF480630493059454
:10125000294601A800F022FE11B030BD08B500F00B
:10126000A5FBFFF7D2FFFFF7CDFEFFF72DFFFFF73E
:101270006DFFFFF781FFFFF795FFFFF7A9FF03F071
:1012800013FB064A0021064803F056FB054B186085
:1012900004F0ECFC03F02AFBFEE700BFA87F000887
:1012A00001120008EC36002008B50268034B9A4290
:1012B00000D008BD00F08CFBFBE700BF002C014014
:1012C00070477047FEE7FEE7FEE7FEE77047000065
:1012D00008B5024801F0F0F808BD00BFE037002073
:1012E00008B5024801F0E8F808BD00BF3437002017
:1012F00008B5024801F0E0F808BD00BF243800201E
:1013000008B5024801F0D8F808BD00BF68380020D1
:1013100008B5024801F0D0F808BD00BFF036002043
:1013200008B5024801F0C8F808BD00BFAC3800207D
:1013300008B5024804F03AFB08BD00BFB8370020EA
:1013400008B5024800F00CFA08BD00BF743900204F
:1013500008B504F099FD024801F032FC08BD00BF59
:10136000F038002008B5024801F02AFC08BD00BF93
:101370003039002008B5024801F022FC08BD00BF4A
:101380007837002082B00E4B9A6942F001029A61D0
:101390009A6902F001020092009ADA6942F08052E2
:1013A000DA61DB6903F080530193019B054A5368BE
:1013B00023F0E06343F00073536002B0704700BF56
:1013C000001002400000014030B587B000230293B6
:1013D00003930493059302681B4B9A4201D007B014
:1013E00030BD03F5D633DA6942F00072DA61DA69AA
:1013F00002F000720092009A9A6942F004029A6127
:101400009B6903F004030193019B4FF40063029373
:101410000024039404940D4D02A9284600F038FEE0
:101420004FF480530293022303930323059302A9ED
:10143000284600F02DFE22460521142001F0F2F886
:10144000142001F023F9CAE70064004000080140BD
:1014500070B58AB004460023069307930893099356
:101460000368904A934208D08F4A934262D08F4AD1
:10147000934200F0BA800AB070BD8D4B9A6942F475
:1014800080429A619A6902F480420092009A9A69B5
:1014900042F004029A619B6903F004030193019BEB
:1014A0004FF4007306930223079303230993814E9D
:1014B00006A9304600F0ECFD4FF48063069300254A
:1014C0000795089506A9304600F0E2FD7A487B4B67
:1014D0000360456085608023C3600561456120230A
:1014E0008361C56100F00AFFF0B9734B63635C620E
:1014F0007348744B03601023436000238360802291
:10150000C260036143618361C36100F0F7FE70B99B
:101510006B4B23635C6200220521252001F082F8D9
:10152000252001F0B3F8A6E7FFF7CAFEDDE7FFF7D5
:10153000C7FEEDE75E4BDA6942F40032DA61DA6940
:1015400002F400320292029A9A6942F004029A610D
:101550009B6903F004030393039B04230693022374
:10156000079303230993534E06A9304600F090FDDC
:101570000823069300250795089506A9304600F034
:1015800087FD5148514B0360456085608023C360EF
:101590000561456120238361C56100F0AFFEF0B9AC
:1015A000494B63635C624A484A4B036010234360C3
:1015B000002383608022C260036143618361C36151
:1015C00000F09CFE70B9424B23635C62002205214F
:1015D000262001F027F8262001F058F84BE7FFF706
:1015E0006FFEDDE7FFF76CFEEDE7314BDA6942F4A1
:1015F0008022DA61DA6902F480220492049A9A69FC
:1016000042F008029A619B6903F008030593059B69
:101610004FF48063069302230793032309932E4E0E
:1016200006A9304600F034FD4FF400630693002510
:101630000795089506A9304600F02AFD2748284B53
:101640000360456085608023C36005614561202398
:101650008361C56100F052FEF0B9204B63635C62A8
:101660002048214B036010234360002383608022C5
:10167000C260036143618361C36100F03FFE70B9E2
:10168000184B23635C6200220521272000F0CAFF6B
:10169000272000F0FBFFEEE6FFF712FEDDE7FFF785
:1016A0000FFEEDE7003801400044004000480040D4
:1016B0000010024000080140683800205800024035
:1016C0002438002044000240F03600206C00024024
:1016D000AC38002080000240000C0140343700206C
:1016E00030000240E03700201C000240704700003C
:1016F00090F83D30DBB2012B27D1022380F83D303A
:101700000268D36843F00103D3600368114A93422F
:1017100010D0B3F1804F0DD0A2F59432934209D08E
:1017200002F58062934205D01A6842F001021A6005
:10173000002070479A6802F00702062A07D01A684C
:1017400042F001021A60002070470120704700201B
:10175000704700BF002C01407047704770477047CA
:1017600010B5044603681A6912F0020F11D0DA6846
:1017700012F0020F0DD06FF002021A6101230377FD
:1017800003689B6913F0030F70D0FFF7E6FF002397
:10179000237723681A6912F0040F12D0DA6812F066
:1017A000040F0ED06FF004021A610223237723681E
:1017B0009B6913F4407F5FD02046FFF7CEFF0023E4
:1017C000237723681A6912F0080F12D0DA6812F032
:1017D000080F0ED06FF008021A61042323772368E4
:1017E000DB6913F0030F4ED02046FFF7B6FF00234E
:1017F000237723681A6912F0100F12D0DA6812F0FA
:10180000100F0ED06FF010021A610823237723689F
:10181000DB6913F4407F3DD02046FFF79EFF002395
:10182000237723681A6912F0010F03D0DA6812F0E7
:10183000010F36D123681A6912F0800F03D0DA68DD
:1018400012F0800F34D123681A6912F0400F03D0D0
:10185000DA6812F0400F32D123681A6912F0200FB3
:1018600003D0DA6812F0200F30D110BDFFF774FFFB
:101870002046FFF773FF8AE72046FFF76DFF2046FB
:10188000FFF76CFF9BE72046FFF766FF2046FFF758
:1018900065FFACE72046FFF75FFF2046FFF75EFFDE
:1018A000BDE76FF001021A612046FFF7FDFCC1E7BA
:1018B0006FF080021A61204600F077F8C3E76FF0FE
:1018C00040021A612046FFF74AFFC5E76FF0200289
:1018D0001A61204600F068F8C7E7000003681B4A59
:1018E00090420AD0B0F1804F07D0A2F594329042D6
:1018F00003D002F58062904203D123F070034A685E
:101900001343124A90420AD0B0F1804F07D0A2F59B
:101910009432904203D002F58062904203D123F4C6
:101920004073CA68134323F080034A69134303607A
:101930008B68C3620B688362044B984202D0012318
:10194000436170470B690363F9E700BF002C014056
:1019500040B310B5044690F83D30F3B1022384F84B
:101960003D30214651F8040BFFF7B8FF012384F8FE
:10197000463084F83E3084F83F3084F8403084F8B4
:10198000413084F8423084F8433084F8443084F89D
:10199000453084F83D30002010BD80F83C30FFF722
:1019A000A5FEDBE7012070477047704708B5074A7E
:1019B000136843F010031360032000F021FE0020A1
:1019C00000F074FEFFF7DEFC002008BD002002409E
:1019D000034A1168034B1B780B441360704700BF28
:1019E0007039002000000020014B1868704700BFCC
:1019F0007039002082B0084B1B68084AA2FB032301
:101A00005B0A00FB03F3019300BF019B5A1E019286
:101A1000002BF9D102B0704708000020D34D6210AE
:101A2000002800F0F18170B582B00446036813F01D
:101A3000010F2CD0AA4B5B6803F00C03042B1DD0C4
:101A4000A74B5B6803F00C03082B12D06368B3F557
:101A5000803F41D0002B55D103F1804303F504337F
:101A60001A6822F480321A601A6822F480221A60FE
:101A700037E09B4B5B6813F4803FE7D0984B1B68C3
:101A800013F4003F03D06368002B00F0BF8123688C
:101A900013F0020F75D0924B5B6813F00C0F5FD000
:101AA0008F4B5B6803F00C03082B54D02369002B89
:101AB00000F089808B4B01221A60FFF795FF0546E5
:101AC000874B1B6813F0020F74D1FFF78DFF401B8B
:101AD0000228F5D903209EE1814A136843F480333C
:101AE0001360636843B3FFF77FFF05467C4B1B68B9
:101AF00013F4003FCBD1FFF777FF401B6428F5D9E3
:101B0000032088E1B3F5A02F09D0754B1A6822F4A1
:101B100080321A601A6822F480221A60E1E703F129
:101B20008043A3F53C331A6842F480221A601A6895
:101B300042F480321A60D4E7FFF756FF0546684B3F
:101B40001B6813F4003FA2D0FFF74EFF401B642830
:101B5000F5D903205FE1624B5B6813F4803FA5D1A8
:101B60005F4B1B6813F0020F03D02369012B40F079
:101B70004F815B4A136823F0F803616943EAC103AC
:101B80001360236813F0080F32D0A369002B45D0EF
:101B9000554B01221A60FFF727FF0546504B5B6A41
:101BA00013F0020F21D1FFF71FFF401B0228F5D9C8
:101BB000032030E14A4A136823F0F803616943EADD
:101BC000C1031360DDE7474B00221A60FFF70CFFEB
:101BD0000546434B1B6813F0020FD2D0FFF704FFFA
:101BE000401B0228F5D9032015E10120FFF702FF71
:101BF000236813F0040F00F09780394BDB6913F072
:101C0000805F1DD1364BDA6942F08052DA61DB69C0
:101C100003F080530193019B012512E0324B002217
:101C20001A60FFF7E1FE05462D4B5B6A13F0020FC9
:101C3000DED0FFF7D9FE401B0228F5D90320EAE0E9
:101C400000252A4B1B6813F4807F11D0E368012B19
:101C500022D0002B38D103F1804303F504331A6AF4
:101C600022F001021A621A6A22F004021A6218E0D3
:101C70001E4A136843F480731360FFF7B5FE0646EF
:101C80001A4B1B6813F4807FE0D1FFF7ADFE801B79
:101C90006428F5D90320BEE0114A136A43F001031A
:101CA0001362E36873B3FFF79FFE06460C4B1B6A93
:101CB00013F0020F37D1FFF797FE801B41F28833F4
:101CC0009842F3D90320A6E0052B11D0044B1A6AE1
:101CD00022F001021A621A6A22F004021A62E0E794
:101CE0000010024000004242800442420070004066
:101CF0004D4B1A6A42F004021A621A6A42F001025B
:101D00001A62CEE7FFF770FE0646474B1B6A13F0D8
:101D1000020F08D0FFF768FE801B41F2883398421B
:101D2000F3D9032077E0E5B9E369002B72D03E4A8E
:101D3000526802F00C02082A56D0022B17D03B4BF7
:101D400000221A60FFF750FE0446374B1B6813F061
:101D5000007F47D0FFF748FE001B0228F5D903207B
:101D600059E0314AD36923F08053D361DCE72F4B2C
:101D700000221A60FFF738FE05462B4B1B6813F054
:101D8000007F06D0FFF730FE401B0228F5D9032064
:101D900041E0236AB3F5803F1AD023494B6823F40E
:101DA0007413226A606A024313434B601F4B012283
:101DB0001A60FFF719FE04461B4B1B6813F0007FE7
:101DC0000ED1FFF711FE001B0228F5D9032022E0F7
:101DD000154A536823F40033A1680B435360DCE7D2
:101DE000002018E0002016E0012B16D00E4B5B6897
:101DF00003F48031226A914211D103F47013626AB4
:101E000093420ED1002006E001207047012002E03D
:101E1000012000E0002002B070BD0120FBE701209E
:101E2000F9E70120F7E700BF0010024060004242DE
:101E300086B0164B0FCB0DF1180C0CE90F0040F2D9
:101E40000123ADF80430124B5B6803F00C02082A42
:101E500002D0104806B07047C3F38342624412F8C0
:101E6000102C13F4803F0CD0094B5B68C3F3404344
:101E7000634413F8143C074800FB02F0B0FBF3F096
:101E8000E8E7054800FB02F0E4E700BFCC7F00086C
:101E90000010024000127A0000093D00002800F006
:101EA000A08070B50D460446524B1B6803F0070333
:101EB0008B420BD24F4A136823F007030B43136086
:101EC000136803F007038B4240F08D80236813F002
:101ED000020F17D013F0040F04D0474A536843F49D
:101EE000E0635360236813F0080F04D0424A53683C
:101EF00043F460535360404A536823F0F003A168F1
:101F00000B435360236813F0010F31D06368012B3A
:101F100020D0022B25D0384A126812F0020F64D06C
:101F200035494A6822F0030213434B60FFF75CFD1A
:101F30000646314B5B6803F00C036268B3EB820F1B
:101F400016D0FFF751FD801B41F288339842F0D93B
:101F5000032045E0284A126812F4003FE0D1012036
:101F60003EE0254A126812F0007FD9D1012037E007
:101F7000204B1B6803F00703AB420AD91D4A1368C4
:101F800023F007032B431360136803F00703AB42EE
:101F90002DD1236813F0040F06D0174A536823F499
:101FA000E063E1680B435360236813F0080F07D028
:101FB000114A536823F46053216943EAC103536013
:101FC000FFF736FF0C4B5B68C3F303130B4AD35C7C
:101FD000D8400B4B18600B4B186800F067FB0020D3
:101FE00070BD012070470120FAE70120F8E70120C9
:101FF000F6E700BF0020024000100240E07F00082A
:102000000800002004000020014B1868704700BF42
:102010000800002008B5FFF7F7FF044B5B68C3F327
:102020000223034AD35CD84008BD00BF0010024021
:10203000F07F000808B5FFF7E7FF044B5B68C3F3C8
:10204000C223034AD35CD84008BD00BF0010024041
:10205000F07F00080F2303600B4B5A6802F0030265
:1020600042605A6802F0F00282605A6802F4E0624C
:10207000C2605B68DB0803F4E0630361034B1B6829
:1020800003F007030B60704700100240002002407D
:10209000F0B482B000252C46A3E07F4FBB4210D0A5
:1020A00007D97E4FBB420CD007F58037BB4208D022
:1020B00013E0A7F58017BB4203D007F57027BB429A
:1020C00007D18B68002B58D0012B51D042610825D5
:1020D00003E0A7F58017BB42F3D0FF2E4FD884460C
:1020E000FF2E4FD8A200DCF800300F27974023EADC
:1020F000070305FA02F21343CCF800304B6813F0E3
:10210000805F6DD0664B9A6942F001029A619B69CB
:1021100003F001030193019BA208971C614B53F844
:10212000273004F00307BF004FF00F0C0CFA07FC38
:1021300023EA0C0C5C4B98422AD003F5806398424A
:1021400000F08A8003F58063984200F0878003F5F1
:10215000806398421AD004231BE0CD68BDE7CD68A8
:102160000435BAE7CD680835B7E7CD680C35B4E774
:1021700002610825B1E70025AFE70425ADE700F1CE
:10218000040CADE7A4F108029200ACE7032300E0E1
:102190000023BB4043EA0C030232424F47F822308F
:1021A0004B6813F4803F5BD0404A1368334313609D
:1021B0004B6813F4003F59D03C4A53683343536093
:1021C0004B6813F4801F57D0384A936833439360A9
:1021D0004B6813F4001F55D0344AD3681E43D660B1
:1021E00001340B6833FA04F252D00122A24003EA10
:1021F000020632EA0303F3D14B68122B3FF64DAFD0
:10220000122B3FF66AAF01A757F823F0C32000084E
:102210005B2100086521000877210008DB20000809
:10222000DB200008DB200008DB200008DB200008A2
:10223000DB200008DB200008DB200008DB20000892
:10224000DB200008DB200008DB200008DB20000882
:102250005F2100086B21000801239AE7022398E719
:10226000124A136823EA06031360A1E70F4A536872
:1022700023EA06035360A3E70C4A936823EA0603A4
:102280009360A5E7094AD36823EA0606D660A7E764
:1022900002B0F0BC704700BF0000221000003110F7
:1022A000001002400000014000080140000401400D
:1022B0000AB101617047090401617047C36801EA0E
:1022C000030221EA030141EA02410161704770B44F
:1022D000066CC56B0124B4406C600468636043689D
:1022E000102B05D0036899600368DA6070BC7047F2
:1022F00003689A600368D960F8E7000060B310B41F
:1023000002460168154B0B441548A0FB03031B094B
:102310009B001364134BD363022382F821300868B7
:1023200020F47F5020F03000536894682343D46831
:102330002343146923435469234394692343D46991
:10234000234303430B6000209063012382F8213074
:1023500082F8200010BC704701207047F8FFFDBFD5
:10236000CDCCCCCC0000024038B5044690F820001B
:10237000012831D0012084F8200094F821000128A0
:1023800004D0002384F82030022038BD022084F8D5
:1023900021000020A0632568286820F00100286043
:1023A0002046FFF794FFE36A5BB12268136843F0AD
:1023B0000E0313602268136843F0010313600020CA
:1023C000E3E72268136823F00403136022681368AC
:1023D00043F00A031360EDE70220D6E790F82130BE
:1023E000022B06D004238363002380F820300120D1
:1023F00070470268136823F00E03136002681368C5
:1024000023F001031360036CC16B012202FA03F392
:102410004B6080F82120002380F820301846704758
:1024200008B590F82130022B03D0042383630120E8
:1024300008BD0268136823F00E0313600268136876
:1024400023F0010313600368194A934214D0143235
:1024500093421FD0143293421ED0143293421ED0A6
:10246000143293421ED01432934202D04FF0807245
:1024700003E04FF4801200E001220E4B5A6001236A
:1024800080F82130002380F82030436B6BB19847EF
:102490000020CDE71022F0E74FF48072EDE74FF413
:1024A0008052EAE74FF48032E7E70020C0E700BF40
:1024B000080002400000024038B5C36B1A68046887
:1024C0002568016C04238B40134235D015F0040FAE
:1024D00032D0236813F0200F03D1236823F00403C4
:1024E00023600368434A934214D01432934218D0B5
:1024F0001432934217D01432934217D014329342BD
:1025000017D01432934202D04FF0806203E04FF4B0
:10251000800200E00422384B5A60C36A03B1984736
:1025200038BD4022F7E74FF48062F4E74FF4804271
:10253000F1E74FF48022EEE702238B4013423CD0B8
:1025400015F0020F39D0236813F0200F06D123684D
:1025500023F00A032360012380F821300368254A11
:10256000934214D0143293421CD0143293421BD0A5
:10257000143293421BD0143293421BD01432934234
:1025800002D04FF0007203E04FF4001200E002228C
:10259000194B5A60002380F82030836A002BBFD08B
:1025A0009847BDE72022F3E74FF40072F0E74FF4BD
:1025B0000052EDE74FF40032EAE7082303FA01F195
:1025C0001142ADD015F0080FAAD0236823F00E03F6
:1025D0002360026CC16B012303FA02F24A60836339
:1025E00080F82130002380F82030036B002B97D037
:1025F000984795E70800024000000240806B704752
:10260000074AD36823F4E0631B041B0C000200F4A8
:10261000E060034343F0BF6343F40033D36070478B
:1026200000ED00E030B4174BDB68C3F30223C3F1C5
:102630000704042C28BF04241D1D062D18D9033BB4
:102640004FF0FF3505FA04F421EA0401994005FA38
:1026500003F322EA0303194300280BDB0901C9B283
:1026600000F1604000F5614080F8001330BC704715
:102670000023E5E700F00F000901C9B2024B19542D
:10268000F4E700BF00ED00E014ED00E0002807DBF8
:1026900000F01F02400901239340024A42F8203013
:1026A000704700BF00E100E07047000000B589B04E
:1026B000014600221920FFF7B5FF1920FFF7E6FFBA
:1026C000144B9A6942F400629A619B6903F40063B7
:1026D0000193019B02A903A8FFF7BCFCFFF7AAFC2A
:1026E0000D4BA3FB00239B0C013B0C480C4A0260E2
:1026F00040F2E732C2604360002303618360FFF76A
:1027000027F918B1012009B05DF804FB0348FEF772
:10271000EFFFF8E70010024083DE1B43743900200E
:10272000002C01400268D36823F0C003D36020234B
:1027300080F8393070470268D36823F49073D3600F
:102740000268536923F001035361202380F83A3073
:10275000704790F83930DBB2212B01D0022070474E
:102760008368B3F5805F17D0036A5A1C02621A7837
:1027700003685A60C38C9BB2013B9BB2C3844BB9C4
:102780000268D36823F08003D3600268D36843F003
:102790004003D360002070470369002BE4D1036A33
:1027A0001B880268C3F308035360036A02330362A1
:1027B000E0E7000010B504460268136923F44053B3
:1027C000C1680B43136183680269134342691A436A
:1027D0000168CB6823F4B05323F00C031343CB60A0
:1027E0000268536923F4407381690B4353610268A3
:1027F000124B9A421FD0FFF70DFC00EB800303EB56
:10280000830362689200B3FBF2F20D48A0FB023131
:102810004909642303FB11231B013233A0FB03236B
:102820005B0903F0F00202EB011203F00F032168D1
:1028300013448B6010BDFFF7FDFBDEE7003801405D
:102840001F85EB5158B310B5044690F839300BB3DF
:10285000242384F839302268D36823F40053D360EA
:102860002046FFF7A7FF2268136923F49043136102
:102870002268536923F02A0353612268D36843F422
:102880000053D3600020E063202384F8393084F8BB
:102890003A3010BD80F83830FEF7DAFDD8E7012075
:1028A0007047000038B590F83930DBB2202B31D1B9
:1028B0000446002930D0002A30D090F83830012B5F
:1028C0002ED0012380F8383001628284C284002532
:1028D000C563212380F83930036B12489862236B5B
:1028E0001148D862236B11481863236B5D6320681D
:1028F0001346021D206BFFF737FD23686FF040027F
:102900001A6084F838502268536943F08003536199
:10291000284600E0022038BD0120FCE70120FAE74C
:102920000220F8E7332A00087F2A0008692B0008F4
:1029300030B583B0044690F83A00C0B220283CD1AC
:1029400000293DD0002A3DD094F83830012B3BD0EF
:10295000012384F83830A162A2850025E563222393
:1029600084F83A30636B19489862636B1848D862F0
:10297000636B18481863636B5D63206813460A46EF
:10298000011D606BFFF7F0FC019523681A68019246
:102990005A680192019A84F83850DA6842F48072D9
:1029A000DA602268536943F0010353612268536976
:1029B00043F040035361284600E0022003B030BDDD
:1029C0000120FBE70120F9E70220F7E7892A000848
:1029D0005D2B0008692B000810B504460268D36817
:1029E00023F49073D3600268536923F001035361A9
:1029F00003685A6912F0400F0BD05A6922F0400266
:102A00005A61436B2BB100225A63406BFFF7E6FC1F
:102A100028B90020E085202384F83A3010BD606B8F
:102A2000FFF7ECFD2028F4D11023E3630320F5E742
:102A3000704708B50346406A1B681B6813F0200FF7
:102A40000CD10023C3840268536923F080035361CF
:102A50000268D36843F04003D36008BDFFF7E8FF86
:102A6000FBE708B50168CA6822F04002CA6020226C
:102A700080F83920FFF7DCFF002008BD704708B55B
:102A8000406AFFF7FBFF08BD08B50346406A1B68B4
:102A90001B6813F0200F13D10023C3850268D3688D
:102AA00023F48073D3600268536923F001035361F8
:102AB0000268536923F040035361202380F83A30C1
:102AC00003F0EAF908BD08B590F83A30DBB2222BE2
:102AD00041D18368B3F5805F14D0826AB3F5805F1B
:102AE00002D0E3B90369D3B903685B681370836AE2
:102AF00001338362C38D9BB2013B9BB2C385A3B1FB
:102B0000002008BD0269002AE7D1826A03685B6879
:102B1000C3F308031380836A02338362EAE703681E
:102B20005B6803F07F031370E1E70268D36823F06A
:102B30002003D3600268D36823F48073D3600268F3
:102B4000536923F001035361202380F83A3003F0E6
:102B5000A3F90020D5E70220D3E7704708B5406A03
:102B6000FFF7FBFF08BD704710B5446A23685A6938
:102B700094F83930DBB2212B10D023685A6902F067
:102B8000400294F83A30DBB2222B11D0E36B43F0D1
:102B90001003E3632046FFF7E6FF10BD02F080025A
:102BA000002AEAD00023E3842046FFF7BBFDE4E7D8
:102BB000002AEBD00023E3852046FFF7BCFDE5E7C4
:102BC00010B5044602681368D168526913F00F000B
:102BD00005D113F0200F02D011F0200F13D128B12E
:102BE00012F0010213D111F4907F10D113F0800F75
:102BF00002D011F0800F6CD113F0400F02D011F011
:102C0000400F6AD110BD2046FFF75DFFFAE713F0D1
:102C1000010F06D011F4807F03D0E06B40F001007B
:102C2000E06313F0040F04D01AB1E06B40F002002F
:102C3000E06313F0020F04D01AB1E06B40F004001F
:102C4000E06313F0080F07D011F0200F00D11AB184
:102C5000E26B42F00802E263E26B002AD2D013F08A
:102C6000200F02D011F0200F21D123685B6903F0FF
:102C70004003E26B12F0080F00D123B32046FFF7A8
:102C80005AFD23685A6912F0400F18D05A6922F091
:102C900040025A61636B73B1124A5A63606BFFF76B
:102CA000BFFB0028AED0606B436B9847AAE7204675
:102CB000FFF709FFD9E72046FFF755FFA2E72046B7
:102CC000FFF751FF9EE72046FFF74DFF0023E36328
:102CD00098E72046FFF73DFD94E72046FFF7C1FE49
:102CE00090E700BFE92C000808B5406A0023C385BF
:102CF000C384FFF738FF08BD00F1080343604FF0BD
:102D0000FF328260C36003610023036070470023C9
:102D10000361704743684B609A688A6051609960AC
:102D20000861036801330360704730B40D68B5F182
:102D3000FF3F11D000F108031C465B681A68AA42E5
:102D4000FAD963684B6099608C60616008610368C0
:102D50000133036030BC70470469F2E703694168DE
:102D600082688A60416851605A68824206D00022B7
:102D700002611A68013A1A601868704782685A60DE
:102D8000F5E70346406A18B11B6B1868C0F13800BC
:102D9000704710B5044602F04DFAA26BE36B9A42FD
:102DA00004D0002402F068FA204610BD0124F9E79F
:102DB00010B5044602F03EFAA36B23B9012402F0D9
:102DC0005BFA204610BD0024F9E770B504461546AD
:102DD000866B026C5AB903681BB100200136A663EA
:102DE00070BD406801F024FA00236360F6E76DB916
:102DF000806804F011FB226CA3681344A36062682E
:102E0000934219D32368A3602846E7E7C06804F01B
:102E100003FB226C5142E3689B1AE36022689342F1
:102E200002D263680B44E360022D01D00020D5E795
:102E300026B1013E0020D1E72846CFE70020CDE7AC
:102E40000346026C6AB110B50846D9681144D960CE
:102E50005C68A14201D31968D960D96804F0DCFA32
:102E600010BD704738B5054602F0E4F995F84540C5
:102E700064B203E001F074F9013C64B2002C08DD97
:102E80006B6A33B105F1240001F0D6F80028F3D0C5
:102E9000F0E7FF2385F8453002F0EEF902F0CAF9B9
:102EA00095F8444064B203E001F05AF9013C64B281
:102EB000002C08DD2B6933B105F1100001F0BCF8DE
:102EC0000028F3D0F0E7FF2385F8443002F0D4F96E
:102ED00038BD000038B5E0B10D46044602F0AAF94D
:102EE0002168E26B236C03FB021060600020A0638A
:102EF000A160013A02FB0313E360FF2384F844302E
:102F000084F84530EDB9236963B902F0B5F90120C1
:102F100038BD4FF0500383F31188BFF36F8FBFF3B9
:102F20004F8FFEE704F1100001F086F80028ECD086
:102F3000084B4FF080521A60BFF34F8FBFF36F8F73
:102F4000E3E704F11000FFF7D7FE04F12400FFF7D8
:102F5000D3FEDAE704ED00E038B51D46049C0B46CD
:102F600049B92460E063236401212046FFF7B2FFE2
:102F700084F84C5038BD2260F4E740B94FF050035C
:102F800083F31188BFF36F8FBFF34F8FFEE730B528
:102F900085B01C46054653B192B189B94FF0500334
:102FA00083F31188BFF36F8FBFF34F8FFEE74FF0AE
:102FB000500383F31188BFF36F8FBFF34F8FFEE78A
:102FC0006AB150230393039B502B13D04FF050034F
:102FD00083F31188BFF36F8FBFF34F8FFEE7002994
:102FE000EFD04FF0500383F31188BFF36F8FBFF31F
:102FF0004F8FFEE7012384F8463000949DF820307F
:103000002846FFF7A9FF204605B030BD40B94FF074
:10301000500383F31188BFF36F8FBFF34F8FFEE729
:10302000F0B583B00C4616460746A1B101FB00F08F
:10303000503001F0F5FF054650B1002380F84630CE
:103040000090334600F1500221463846FFF784FFD6
:10305000284603B0F0BD0846EAE70000F0B585B0A9
:10306000019288B10E461D460446B1B1022D20D111
:10307000E36B012B1DD04FF0500383F31188BFF396
:103080006F8FBFF34F8FFEE74FF0500383F311882C
:10309000BFF36F8FBFF34F8FFEE7036C002BE5D0BC
:1030A0004FF0500383F31188BFF36F8FBFF34F8F3F
:1030B000FEE701F061F8074658B9019B002B44D0A8
:1030C0004FF0500383F31188BFF36F8FBFF34F8F1F
:1030D000FEE7002739E02A4631462046FFF775FE15
:1030E000626A6AB938B13C4B4FF080521A60BFF344
:1030F0004F8FBFF36F8F02F0BFF8012005B0F0BD16
:1031000004F1240000F098FF0028F4D0324B4FF077
:1031100080521A60BFF34F8FBFF36F8FEBE702F05F
:10312000ABF80020EAE702A800F0CCFF012719E085
:10313000002384F8443021E0002384F8453023E064
:103140002046FFF78FFE00F057FE02F073F8A26BE7
:10315000E36B9A42BFD3022DBDD0019B002BDED082
:10316000002FE0D002F088F800F0ACFD02F062F829
:1031700094F844305BB2B3F1FF3FD9D094F84530B6
:103180005BB2B3F1FF3FD7D002F076F801A902A8F5
:1031900000F0A4FFC8B92046FFF7FBFD0028CFD000
:1031A000019904F1100000F013FF2046FFF75AFECA
:1031B00000F022FE0028C8D1074B4FF080521A6061
:1031C000BFF34F8FBFF36F8FBFE72046FFF74AFE75
:1031D00000F012FE002091E704ED00E048B110B5C8
:1031E000002141600160C1600B460A46FFF736FFCF
:1031F00010BD704710B5024600210120FFF706FF01
:103200000446FFF7EBFF204610BD10B582B00B4619
:103210000090002211460120FFF7AFFE0446FFF7A1
:10322000DDFF204602B010BD38B538B10446456810
:1032300000F09CFF85420AD0002038BD4FF05003BB
:1032400083F31188BFF36F8FBFF34F8FFEE7E368FF
:10325000013BE3600BB10120EFE71A461946204617
:10326000FFF7FCFE0120E8E72DE9F84390B189461D
:1032700090461F460446B1B1022F20D1E36B012BCB
:103280001DD04FF0500383F31188BFF36F8FBFF34E
:103290004F8FFEE74FF0500383F31188BFF36F8F1A
:1032A000BFF34F8FFEE7036C002BE5D04FF05003C8
:1032B00083F31188BFF36F8FBFF34F8FFEE702F0E8
:1032C000A7F8EFF311864FF0500383F31188BFF393
:1032D0006F8FBFF34F8FA26BE36B9A4206D3022F1F
:1032E00004D0002086F31188BDE8F88394F8455097
:1032F0006DB23A4649462046FFF767FDB5F1FF3FFC
:1033000005D06B1C5BB284F845300120EAE7636AA4
:103310000BB90120E6E704F1240000F08DFE30B186
:10332000B8F1000F05D00120C8F80000DAE701204D
:10333000D8E70120D6E70000F0B585B0019290B142
:103340000E460446C1B100F017FF074600BB019BC3
:10335000002B5CD04FF0500383F31188BFF36F8FC5
:10336000BFF34F8FFEE74FF0500383F31188BFF395
:103370006F8FBFF34F8FFEE7036C002BE3D04FF04E
:10338000500383F31188BFF36F8FBFF34F8FFEE7B6
:1033900000273CE031462046FFF752FD013DA56382
:1033A000236923B901F068FF012005B0F0BD04F1E5
:1033B000100000F041FE0028F4D0354B4FF0805251
:1033C0001A60BFF34F8FBFF36F8FEBE701F054FF2D
:1033D0000020EAE702A800F075FE012721E00023A3
:1033E00084F8443029E0002384F845302BE020465F
:1033F000FFF738FD00F000FD09E02046FFF732FD41
:1034000000F0FAFC2046FFF7D3FC00283DD101F084
:1034100011FFA56B002DBDD1019B002BD6D0002F35
:10342000D8D001F029FF00F04DFC01F003FF94F823
:1034300044305BB2B3F1FF3FD1D094F845305BB27A
:10344000B3F1FF3FCFD001F017FF01A902A800F0B0
:1034500045FE0028D1D12046FFF7AAFC0028C6D09F
:10346000019904F1240000F0B3FD2046FFF7FAFCB7
:1034700000F0C2FC0028CAD1054B4FF080521A6000
:10348000BFF34F8FBFF36F8FC1E700208DE700BF01
:1034900004ED00E070B584B0019158B10446036CAE
:1034A0008BB14FF0500383F31188BFF36F8FBFF3DD
:1034B0004F8FFEE74FF0500383F31188BFF36F8FF8
:1034C000BFF34F8FFEE700F057FE064650B9019B51
:1034D0005BB14FF0500383F31188BFF36F8FBFF3DD
:1034E0004F8FFEE700252E4653E0054651E0013B95
:1034F000A36323683BB123694BB901F0BDFE0125ED
:10350000284604B070BD00F02DFF6060F3E704F1C1
:10351000100000F091FD0028EFD0464B4FF0805294
:103520001A60BFF34F8FBFF36F8FE6E745B14FF0DF
:10353000500383F31188BFF36F8FBFF34F8FFEE704
:1035400001F09AFEDCE702A800F0BCFD01262AE0AB
:10355000002384F8443032E0002384F8453034E01E
:1035600001F068FE606800F017FE054601F084FE79
:103570003BE02046FFF776FC00F03EFC09E02046E9
:10358000FFF770FC00F038FC2046FFF711FC002824
:1035900040D101F04FFEA36B002BA8D1019B002B63
:1035A000C4D0002ECFD001F067FE00F08BFB01F0FD
:1035B00041FE94F844305BB2B3F1FF3FC8D094F8B9
:1035C00045305BB2B3F1FF3FC6D001F055FE01A913
:1035D00002A800F083FD0028D1D12046FFF7E8FBC8
:1035E0000028C6D02368002BBAD0019904F124002A
:1035F00000F0EEFC2046FFF735FC00F0FDFB002854
:10360000C7D10C4B4FF080521A60BFF34F8FBFF3FE
:103610006F8FBEE70DB9002572E701F00BFE204663
:10362000FFF7AFFB0146606800F04AFE01F024FEA0
:10363000F1E700BF04ED00E088B170B50D46044627
:10364000466800F093FD864212D029462046FFF7D7
:1036500021FF024680B1E3680133E3600CE04FF0E4
:10366000500383F31188BFF36F8FBFF34F8FFEE7D3
:10367000E3680133E3600122104670BD2DE9F84391
:10368000C8B1894617460446F1B101F0C1FEEFF317
:1036900011864FF0500383F31188BFF36F8FBFF390
:1036A0004F8FD4F83880B8F1000F19D1002086F37D
:1036B0001188BDE8F8834FF0500383F31188BFF3FE
:1036C0006F8FBFF34F8FFEE7036C002BDDD04FF001
:1036D000500383F31188BFF36F8FBFF34F8FFEE763
:1036E00094F844506DB249462046FFF7A9FB08F113
:1036F000FF33A363B5F1FF3F05D06B1C5BB284F8C9
:1037000044300120D3E723690BB90120CFE704F14E
:10371000100000F091FC18B127B101203860C6E715
:103720000120C4E70120C2E7002300E00133072B9A
:103730000BD8064A52F83320002AF7D1034A42F840
:10374000331002EBC303586070477047BC39002048
:1037500070B504460D46164601F06CFD94F84430F1
:103760005BB2B3F1FF3F0DD094F845305BB2B3F1DB
:10377000FF3F0BD001F080FDA36B5BB12046FFF74C
:1037800071FB70BD002384F84430EDE7002384F81A
:103790004530EFE73246294604F1240000F030FCC2
:1037A000ECE70000084B1B681B6823B9074B4FF080
:1037B000FF321A607047044B1B68DB68DB685A688D
:1037C000024B1A60704700BFA8000020500500207F
:1037D0002DE9F04780460D4617469946089EDDF8CC
:1037E00024A00A9C9200A521206B03F023FE236BEA
:1037F00007F18042013A03EB820727F00707002216
:103800000F2A07D8A95CA31883F83410AB5C0BB15E
:103810000132F5E7002384F84330372E00D93726EC
:10382000E662E66400252565201DFFF770FA04F1C5
:103830001800FFF76CFA2461C6F13806A6616462CD
:10384000656584F858504A464146384601F0C8FC40
:103850002060BAF1000F01D0CAF80040BDE8F0873F
:1038600038B50024372C08D804EB840293000E48A6
:103870001844FFF741FA0134F4E70C4D2846FFF7EE
:103880003BFA0B4C2046FFF737FA0A48FFF734FAA9
:103890000948FFF731FA0948FFF72EFA084B1D6077
:1038A000084B1C6038BD00BFB00000202805002078
:1038B0003C050020580500208405002070050020EC
:1038C000A8000020AC00002010B5044601F0B2FCB6
:1038D000214A136801331360204B1B685BB1204BF6
:1038E0001B686BB91D4B1B68DA6AE36A9A4207D8FA
:1038F0001A4B1C6004E0194B1C601368012B27D085
:10390000184A1368013313606364E06A164B1B683E
:10391000984201D9144B186000EB8000211D134B15
:1039200003EB8000FFF7F6F901F0A6FC0C4B1B68D7
:103930006BB10A4B1B68DA6AE36A9A4207D20C4BF6
:103940004FF080521A60BFF34F8FBFF36F8F10BDDF
:10395000FFF786FFD4E700BF10050020A400002079
:103960006C0500202005002024050020B000002068
:1039700004ED00E010B5044690F8593063B1012B16
:1039800011D0022B0ED04FF0500383F31188BFF3F8
:103990006F8FBFF34F8FFEE7006B01F0B9FB20463E
:1039A00001F0B6FB10BD01F0B3FBFBE70F4B1B684A
:1039B000D3B110B501F03EFC0D4BDB68DC68201D77
:1039C000FFF7CCF90B4A1368013B1360074A1368F1
:1039D000013B136001F050FC2046FFF7CBFF034B87
:1039E0001B68002BE6D110BD704700BF14050020F6
:1039F000840500201005002008B5FFF7D7FF064B0F
:103A00001B68012BF9D9054B4FF080521A60BFF3A8
:103A10004F8FBFF36F8FF0E7B000002004ED00E0A0
:103A200070B504460D46174B1E68174B18680430D6
:103A3000FFF794F9B4F1FF3F0DD03444124B1B68EB
:103A40005C60A64210D9114B18680F4B19680431FD
:103A5000FFF76BF970BD002DEFD00B4B19680431E7
:103A60000B48FFF757F9F5E70A4B1868064B19683A
:103A70000431FFF75AF9084B1B68A342EAD9064BF9
:103A80001C60E7E798050020A4000020AC0000209F
:103A900070050020A80000205005002070B586B0F9
:103AA0000B9D0C9C75B1B4B15C260496049E5C2EF3
:103AB0001AD04FF0500383F31188BFF36F8FBFF319
:103AC0004F8FFEE74FF0500383F31188BFF36F8FE2
:103AD000BFF34F8FFEE74FF0500383F31188BFF31E
:103AE0006F8FBFF34F8FFEE72563022584F859508F
:103AF00000250395029405AD01950A9D0095FFF7F9
:103B000067FE2046FFF7E0FE059806B070BD2DE980
:103B1000F04385B00746884614461E46900001F0E3
:103B20007FFA00B381465C2001F07AFA0546B0B115
:103B3000C0F83090E5B1002385F859300393029521
:103B40000D9B01930C9B0093334622464146384619
:103B5000FFF73EFE2846FFF7B7FE012005E0484686
:103B600001F0D6FAE6E74FF0FF3005B0BDE8F0838C
:103B70004FF0FF30F9E7000038B5044601F05AFB7A
:103B800024B3251D2846FFF7E9F8A36A1BB104F109
:103B90001800FFF7E3F81E4A1368013313601D4B4A
:103BA0001B68A34215D01C4A1368013B13602046D2
:103BB000FFF7E0FEFFF7F6FD01F05EFB174B1B6819
:103BC0001BB1144B1B68A3420CD038BD114B1C68B1
:103BD000D7E729461248FFF79DF8124A13680133C8
:103BE0001360E9E7104B1B6843B14FF0500383F3B8
:103BF0001188BFF36F8FBFF34F8FFEE70B4B4FF072
:103C000080521A60BFF34F8FBFF36F8FDDE700BFA5
:103C100020050020A4000020100500206C050020D5
:103C200084050020140500201C05002004ED00E0A0
:103C300010B588B000240594069407AA06A905A823
:103C400001F07AF9059B0293069B019300942346A9
:103C5000079A17491748FFF721FF48B100F01CFCED
:103C60000346012B06D0B3F1FF3F18D008B010BDBA
:103C70000023F6E74FF0500383F31188BFF36F8FF3
:103C8000BFF34F8F0C4B4FF0FF321A600B4B0122EA
:103C90001A600B4B00221A6001F05EFBE6E74FF062
:103CA000500383F31188BFF36F8FBFF34F8FFEE78D
:103CB000F87F0008F9390008500500206C05002045
:103CC00098050020024A136801331360704700BF53
:103CD0001C050020014B1868704700BF98050020A4
:103CE000F8B53A4B1B68002B65D1394B1D6801357F
:103CF0001D60C5B9374B1B681B6843B14FF05003BB
:103D000083F31188BFF36F8FBFF34F8FFEE7314A04
:103D10001168314B186810601960304A136801331C
:103D20001360FFF73FFD2E4B1B68AB420CD90024FC
:103D30002C4B1B68DB6A03EB83039A002A4B9B58CE
:103D4000012B3DD901243BE0002416E0244B4FF029
:103D5000FF321A60ECE7224A1360E9E703EB8303C2
:103D60009A00394620481044FEF7D4FFF26A1D4BF2
:103D70001B68DB6A9A4200D30124164B1B681B6840
:103D8000002BE3D0134B1B68DB68DE6873689D4231
:103D9000E1D3371D3846FEF7E1FFB36A1BB106F1E8
:103DA0001800FEF7DBFFF36A104A12689342D5D978
:103DB0000E4A1360D2E70E4A1368013313600024E1
:103DC0000C4B1B6803B101242046F8BD1C050020E4
:103DD00098050020A8000020AC0000205405002019
:103DE00050050020A4000020B00000202405002081
:103DF000180500209C05002038B5344B1B6843B9DA
:103E00004FF0500383F31188BFF36F8FBFF34F8FD1
:103E1000FEE701F00FFA2D4B1A68013A1A601B6891
:103E2000002B4DD12A4B1B680BB9002449E000241C
:103E3000284B1B681BB3274BDB68DC6804F11800B8
:103E4000FEF78CFF251D2846FEF788FFE06A224B0F
:103E50001B68984201D9204B186000EB800029466E
:103E60001E4B03EB8000FEF755FFE26A1C4B1B68FC
:103E7000DB6A9A42DCD31B4B01221A60D8E70CB1F3
:103E8000FFF790FC184B1C6874B9164B1C68C4B142
:103E9000164B4FF080521A60BFF34F8FBFF36F8FF6
:103EA00001240EE0013C07D0FFF71AFF0028F9D0EB
:103EB0000C4B01221A60F5E70B4B00221A60E4E775
:103EC000002401F0D9F9204638BD00BF1C050020B0
:103ED000100500205805002024050020B000002017
:103EE000A40000209C0500201805002004ED00E03F
:103EF00010B5A8B104460F4B1B6843B14FF05003F7
:103F000083F31188BFF36F8FBFF34F8FFEE7FFF787
:103F1000D9FE00212046FFF783FDFFF76DFF38B97A
:103F2000054B4FF080521A60BFF34F8FBFF36F8F76
:103F300010BD00BF1C05002004ED00E01F4B1B68F6
:103F40001BB11F4B01221A6070471D4B00221A60E3
:103F50001C4B1B6803EB83018A001B498A585AB922
:103F60000BB1013BF6E74FF0500383F31188BFF329
:103F70006F8FBFF34F8FFEE710B403EB8300820017
:103F80000A4450684068506003EB8304A200144662
:103F90000832114488420CD003EB830291000A4A94
:103FA0000A445268D168094A1160064A136010BC7D
:103FB00070474068044A22445060EDE71C05002029
:103FC0009C05002024050020B0000020A400002053
:103FD00058B110B50C46094B19681831FEF7A5FE0B
:103FE00001212046FFF71CFD10BD4FF0500383F365
:103FF0001188BFF36F8FBFF34F8FFEE7A40000203F
:1040000038B570B10C4615460A4B19681831FEF7E1
:1040100081FE0DB14FF0FF3429462046FFF700FD29
:1040200038BD4FF0500383F31188BFF36F8FBFF398
:104030004F8FFEE7A400002038B5C368DC6824B3C6
:1040400004F118052846FEF789FE184B1B682BBBA8
:10405000251D2846FEF782FEE06A154B1B68984234
:1040600001D9134B186000EB80002946114B03EB7C
:104070008000FEF74FFEE26A0F4B1B68DB6A9A4234
:1040800011D901200D4B18600EE04FF0500383F35F
:104090001188BFF36F8FBFF34F8FFEE729460848A3
:1040A000FEF738FEE7E7002038BD00BF1C05002002
:1040B00024050020B0000020A40000209C05002062
:1040C00058050020034B1B680360034B1B684360CB
:1040D000704700BF5405002098050020F8B5C8B10E
:1040E0000C460546F9B101F0A5F81B4B19686B6841
:1040F000C81A2268B2F1FF3F26D02F68174E3668E3
:10410000B74201D08B4224D9824215D800232360C4
:1041100001241AE04FF0500383F31188BFF36F8F2F
:10412000BFF34F8FFEE74FF0500383F31188BFF3C7
:104130006F8FBFF34F8FFEE75B1A1344236028464F
:10414000FFF7C0FF002400E0002401F095F82046AE
:10415000F8BD0124F9E700BF9805002054050020B0
:10416000014B01221A6070479C050020014B186822
:10417000704700BFA4000020054B1B6833B1054BFE
:104180001B680BB100207047022070470120704768
:104190006C0500201C05002000283FD038B50446DF
:1041A000C36A204A1268D26A93422FD28269002AD7
:1041B00005DB1C4A1268D26AC2F138028261616969
:1041C00003EB8303184A02EB8303994205D0154B96
:1041D0001B68DB6AE362012038BD251D2846FEF717
:1041E000BDFD104B1B68D86AE062104B1B689842FB
:1041F00009D800EB800029460B4B03EB8000FEF74B
:1042000089FD0120E8E7094B1860F2E7C26C054B15
:104210001B68DB6A9A4203D30020DDE70020704769
:104220000120D9E7A4000020B000002024050020D0
:1042300000283BD038B504461E4B1B68834208D08B
:104240004FF0500383F31188BFF36F8FBFF34F8F8D
:10425000FEE7036D43B94FF0500383F31188BFF3BA
:104260006F8FBFF34F8FFEE7013B0365C16AC26CDE
:1042700091421DD00BB1002038BD051D2846FEF728
:104280006DFDE06CE062C0F13803A3610A4B1B686E
:10429000984201D9084B186000EB80002946074B73
:1042A00003EB8000FEF736FD0120E5E700207047B4
:1042B0000020E1E7A400002024050020B000002039
:1042C000002847D038B50A460446016D41B94FF081
:1042D000500383F31188BFF36F8FBFF34F8FFEE757
:1042E000C36C934200D21346E26A9A4201D001297C
:1042F00000D038BD18490968A14222D0E362A16903
:10430000002902DBC3F13803A361616902EB820279
:10431000124B03EB82029142EBD1251D2846FEF79A
:104320001DFDE06A0E4B1B68984201D90C4B1860CA
:1043300000EB80002946094B03EB8000FEF7EAFC06
:10434000D7E74FF0500383F31188BFF36F8FBFF3AC
:104350004F8FFEE7704700BFA4000020B000002090
:1043600024050020054B1B6823B1044B1A68136D0C
:1043700001331365014B1868704700BFA40000208B
:10438000064B1A681368B3FA83F35B09036013B929
:10439000D368186870470020704700BFA005002050
:1043A00008B54160006191420CD8D21A83699A42E3
:1043B00001D3012008BD011D094B1868FEF7B5FCAB
:1043C0000020F7E79A4201D2994206D2011D054B1F
:1043D0001868FEF7AAFC0020ECE70120EAE700BF1E
:1043E000A4050020A005002030B583B000F022FF16
:1043F000114B1B681BB100F03FFF03B030BD0F4DE8
:104400002846FEF779FC0E4C2046FEF775FC0D4B56
:104410001D600D4B1C60002300930C4B0C4A1021B7
:104420000A20FEF7AAFD044B18600028E3D00949D2
:10443000FFF77AF9DFE700BFC40600204806002036
:104440005C060020A0050020A405002074060020C2
:10445000A8050020008000082DE9F041079C41B923
:104460004FF0500383F31188BFF36F8FBFF34F8F6B
:10447000FEE7074616461D4688465CB1FFF7B4FFC7
:104480002760C4F81880E6612562069B6362201DE0
:10449000FEF73DFCBDE8F08110B588B0FFF7A4FF42
:1044A000124B1B68CBB100240594069407AA06A9F9
:1044B00005A800F04DFD059B0293069B0193022386
:1044C00000932346079A0A490A48FFF7E7FA0A4A7F
:1044D000106010B1012008B010BD4FF0500383F3FD
:1044E0001188BFF36F8FBFF34F8FFEE7C406002024
:1044F000088000085D480008C80600202DE9F0414A
:1045000082B00446884615461E46302000F088FDDD
:10451000074658B10190089B009333462A4641460E
:104520002046FFF799FF002387F82C30384602B069
:10453000BDE8F08130B585B0099C30250395039D19
:10454000302D08D04FF0500383F31188BFF36F8FE5
:10455000BFF34F8FFEE754B10194089D0095FFF71C
:104560007BFF012384F82C30204605B030BD4FF08E
:10457000500383F31188BFF36F8FBFF34F8FFEE7B4
:10458000C0B110B584B014461A46034616480068F8
:1045900038B300910194029305291CDCFFF7ECFD70
:1045A000022810D000231A4669460F480068FEF71B
:1045B00055FD14E04FF0500383F31188BFF36F8F64
:1045C000BFF34F8FFEE70023069A6946064800684E
:1045D000FEF744FD03E000236946FEF745FE04B004
:1045E00010BD0020FBE700BFC406002070B582B0FC
:1045F0001A4B1B681A6852B3DB681E68DC68251DFD
:104600002846FEF7ABFB636A20469847E369012B17
:10461000EED1A36933449E4207D2636024612946E8
:104620000E4B1868FEF781FBE2E7002100910B4674
:1046300032462046FFF7A4FF0028D9D14FF050039F
:1046400083F31188BFF36F8FBFF34F8FFEE7044AE8
:10465000106802490860136002B070BDA005002018
:10466000A405002038B50546FFF734FB0446074B88
:104670001B68834205D800232B60044B1C60204636
:1046800038BDFFF7B3FF01232B60F6E7700600206B
:1046900070B582B005460E46144B1B68DB68DC68BB
:1046A000201DFEF75BFBE369012B04D0636A204603
:1046B000984702B070BDA1692B4632462944204676
:1046C000FFF76EFE0028F1D0002100910B462A462C
:1046D0002046FFF755FF0028E8D14FF0500383F341
:1046E0001188BFF36F8FBFF34F8FFEE7A005002047
:1046F00070B582B006460C46FFF7E4FA01A8FFF752
:10470000B1FF019B1BBB05460CB9B04218D22CB1BE
:10471000114B1B681C68B4FA84F464092246711BAF
:104720000E4B1868FFF714F8FFF766FB88B90C4BBF
:104730004FF080521A60BFF34F8FBFF36F8F08E0C6
:10474000FFF75AFB29463046FFF7A2FF01E0FFF7CB
:1047500053FB02B070BD00BFA4050020C4060020BA
:1047600004ED00E010B588B006E007990698059BB7
:104770009847049B002B0BDA002204A9364B1868DB
:10478000FEF7DAFD002865D0049B002BF1DAECE798
:10479000069C636913B1201DFEF7E0FA03A8FFF73A
:1047A00061FF049B092BE7D801A252F823F000BF58
:1047B000D9470008D9470008D947000879470008B9
:1047C0001F48000845480008D9470008D947000895
:1047D000794700081F480008059BA1690246194453
:1047E0002046FFF7DDFD0028C6D0636A20469847C3
:1047F000E369012BC0D1A269002100910B46059805
:1048000002442046FFF7BCFE0028B5D14FF050030C
:1048100083F31188BFF36F8FBFF34F8FFEE70599C6
:10482000A16131B10346024601442046FFF7B8FDBD
:10483000A2E74FF0500383F31188BFF36F8FBFF3EC
:104840004F8FFEE794F82C30002B95D1204600F0D6
:104850005FFC91E708B010BDC406002000B583B02E
:1048600001A8FFF78DFD0199FFF742FFFFF77AFFDF
:10487000F6E740B110B5044600F0DCFC246A00F015
:10488000FBFC204610BD4FF0500383F31188BFF3AB
:104890006F8FBFF34F8FFEE708B5FFF7EAFF10B148
:1048A00002684068904708BDEFF3058393B9EFF3C2
:1048B000108393B90C4B1868022804D080B90A4BB6
:1048C00001221A607047EFF31183002BF6D06FF0CE
:1048D000050070476FF0050070476FF005007047E6
:1048E0004FF0FF30704700BF2809002008B5EFF3F4
:1048F0000583B3B9EFF31083B3B90E4B1B68022BDA
:1049000008D0012B13D10B4B02221A60FFF790F94C
:10491000002008BDEFF31182002AF2D06FF00500ED
:10492000F7E76FF00500F4E76FF00500F1E74FF0EF
:10493000FF30EEE728090020F0B587B0002404948A
:10494000EFF30584002C43D1EFF31083002B3FD10C
:10495000334B1B68022B21D0002839D000238DF85F
:10496000173062B31568EDB1936903B918235C1E63
:10497000372C51D8546814F0010F4FD15669A6B1A5
:104980004FEA960C94682CB1D7685B2F02D917694F
:1049900007B106BB64B14FF0FF3416E0EFF31183AB
:1049A000B3B9D9E70DF11705DEE74FF0800CE9E761
:1049B000D46894B914699CB14FF0FF3405E0002429
:1049C00018234FF0800C0DF11705012C0AD0ACB163
:1049D000049807B0F0BD0124F7E74FF0FF34F4E787
:1049E0000024F2E7146992680292019400930B4646
:1049F00062462946FFF752F80490E9E704AA0192BB
:104A000000930B461FFA8CF22946FFF780F8012825
:104A1000DED000230493DBE70020DAE70020D8E7AC
:104A20002809002008B50020FFF7A6F8FEE70000DF
:104A300008B5EFF30583A3B9EFF31083A3B90C4BCB
:104A40001B68022B02D040B9002008BDEFF3118390
:104A5000002BF8D06FF00500F7E7FFF749FA0020C8
:104A6000F3E76FF00500F0E76FF00500EDE700BF3A
:104A7000280900202DE9F04383B0EFF30584002CD2
:104A800047D106460F4690461D46EFF31084A146D7
:104A9000002C42D1244B1B68022B20D0002E3ED08C
:104AA000082000F0BDFA002834D00660C0F8048069
:104AB0000FB14FF001093DB32C68AB6813B1EA6840
:104AC0002F2A17D88BB14FF0FF3353BB174B0093EE
:104AD00003464A4601212046FFF710FD1AE0EFF396
:104AE0001183002BDAD0002014E0EB687BB14FF08B
:104AF000FF33EAE701930D4B009303464A46012139
:104B00002046FFF717FD05E02C460023DDE70023D4
:104B1000DBE7002003B0BDE8F0830020FAE70020C7
:104B2000F8E70020F6E700BF2809002099480008B0
:104B3000EFF30583E3B90A46EFF31083DBB9124BB9
:104B40001B68022B0DD0C8B100B583B000230093C1
:104B50000421FFF715FD012813D1002003B05DF8F3
:104B600004FBEFF31183002BEDD06FF005007047CD
:104B70006FF0050070476FF0050070476FF003009D
:104B800070476FF00200E9E72809002070B5EFF3E5
:104B90000583002B4ED10446EFF310821346002A02
:104BA0004BD1284A1268022A23D004B1636813F05B
:104BB000010600D0012613F0080F40D17CB3A16894
:104BC00011B1E3684F2B1FD8C9B14FF0FF337BBB46
:104BD0004EB30420FEF70EFB05462DB104B1246848
:104BE00021462846FEF7A0FD2DB326B345F001056A
:104BF00021E0EFF31182002AD7D000251BE0E36803
:104C00007BB14FF0FF33E2E726B10420FEF7FDFA57
:104C10000546E2E70120FEF7F8FA0546DDE7002346
:104C2000D5E70023D3E70120FEF7E4FA0546D4E7F1
:104C30000025D9E70025284670BD0025FBE70025A3
:104C4000F9E700BF28090020EFF3058242BB10B549
:104C500003460C4620F0010003F00103EFF310823D
:104C60000ABB194A1268022A0AD0F8B17BB1214660
:104C7000FEF7E2FC01281CD0ECB16FF0010019E056
:104C8000EFF31182002AF0D06FF0050012E0214608
:104C9000FEF700FC012811D094B16FF0010009E08B
:104CA0006FF0050070476FF0050003E06FF0030040
:104CB00000E0002010BD6FF00200FBE70020F9E7E4
:104CC0006FF00200F6E700BF28090020EFF305822D
:104CD00022BB08B5034620F0010003F00103EFF307
:104CE0001082F2B9154A1268022A07D0E0B163B106
:104CF000FEF79AFA01281AD1002008BDEFF31182BD
:104D0000002AF3D06FF00500F7E700231A46194692
:104D1000FEF7A4F901280DD10020EEE76FF00500A1
:104D200070476FF00500E8E76FF00300E5E76FF00C
:104D30000200E2E76FF00200DFE700BF2809002071
:104D400070B582B0EFF30583002B48D11546EFF321
:104D50001083002B47D1284B1B68022B20D0002842
:104D600043D0002943D09DB3AB684BB1EA684F2ACA
:104D700006D92A6922B16E6901FB00F4A64221D24C
:104D8000A3B14FF0FF33A3BB0022FEF73FF9044667
:104D900034B305B12D6829462046FEF7C5FC1FE057
:104DA000EFF31183002BDAD0002419E0EB688BB904
:104DB0002B6913B14FF0FF33E5E76B696BB14FF02F
:104DC000FF33E0E700240094FEF7D7F80446DFE75E
:104DD0000023D8E74FF0FF33D5E70023D3E70024C3
:104DE000204602B070BD0024FAE70024F8E7002452
:104DF000F6E70024F4E700BF2809002010B582B0D0
:104E00001C46EFF30583B3B9EFF310839BB9214B35
:104E10001B68022B0BD088B399B300232246FEF700
:104E20001DF9012830D08CB36FF0010018E0EFF3CA
:104E30001183002BEFD0A8B1B9B1CCB900230193F5
:104E400001AAFEF711FA012815D1019840B1124BC1
:104E50004FF080521A60BFF34F8FBFF36F8F002067
:104E600002B010BD6FF00300FAE76FF00300F7E740
:104E70006FF00300F4E76FF00200F1E76FF003005A
:104E8000EEE76FF00300EBE70020E9E76FF00200C8
:104E9000E6E700BF2809002004ED00E010B582B06D
:104EA0001C46EFF30583ABB9EFF3108393B9204BA6
:104EB0001B68022B0AD080B391B32246FEF73CFA5E
:104EC000012830D08CB36FF0010018E0EFF31183AC
:104ED000002BF0D0A8B1B9B1CCB90023019301AA3D
:104EE000FEF7CCFB012815D1019840B1114B4FF0D2
:104EF00080521A60BFF34F8FBFF36F8F002002B054
:104F000010BD6FF00300FAE76FF00300F7E76FF0F2
:104F10000300F4E76FF00200F1E76FF00300EEE743
:104F20006FF00300EBE70020E9E76FF00200E6E72F
:104F30002809002004ED00E0034B0360034B0B60E5
:104F400080231360704700BFCC080020CC060020EF
:104F5000034B0360034B0B604FF480731360704787
:104F60002C0D00202C090020124A12F0070F1ED031
:104F7000D11D21F00701C1F5205313440A460E4804
:104F80000260002141601344083B23F007030B48F3
:104F9000036059601960991A51601360084B1960D9
:104FA000084B1960084B4FF000421A6070474FF4ED
:104FB0002053E4E78C0D002098350020880D002058
:104FC00094350020903500208C35002010B4124B11
:104FD0001A461B688342FBD351685418844209D097
:104FE00041684418A3420AD00360904200D0106088
:104FF00010BC70474068014451601046F0E7074C10
:105000002468A34206D05B681944416013681B689A
:105010000360EAE70460E8E798350020880D002087
:1050200070B50446FEF74EFE344B1B68A3B1344BFB
:105030001B681C424AD134B1083414F0070F02D067
:1050400024F007040834002C42D02E4B1B68A342E6
:105050004DD32D4B1D6804E0FFF786FFE7E72B4695
:1050600015466A68A24202D22A68002AF7D1234A6A
:105070001268AA423DD01E6808362A681A606B681A
:105080001B1B102B10D9281910F0070F08D04FF058
:10509000500383F31188BFF36F8FBFF34F8FFEE789
:1050A00043606C60FFF792FF6A6816490B689B1AB1
:1050B0000B60164909688B4201D214490B60104BF2
:1050C0001B6813436B6000232B6002E0002600E0A6
:1050D0000026FEF791FE16F0070F0CD04FF050039C
:1050E00083F31188BFF36F8FBFF34F8FFEE7002666
:1050F000EFE70026EDE7304670BD00BF880D0020C9
:105100008C35002090350020983500209435002003
:1051100080B338B50446A0F1080550F8043C164A9F
:105120001268134208D14FF0500383F31188BFF384
:105130006F8FBFF34F8FFEE750F8081C41B14FF05F
:10514000500383F31188BFF36F8FBFF34F8FFEE7D8
:1051500023EA020340F8043CFEF7B4FD54F8041CB3
:10516000064A13680B4413602846FFF72FFFFEF72B
:1051700043FE38BD704700BF8C35002090350020BD
:1051800082B0002301930D4B1B68B3F1FF3F08D0A1
:105190004FF0500383F31188BFF36F8FBFF34F8F2E
:1051A000FEE74FF0500383F31188BFF36F8FBFF317
:1051B0004F8F019B002BFCD002B070470C000020E9
:1051C00006480068006880F3088862B661B6BFF3DD
:1051D0004F8FBFF36F8F00DF00BF000008ED00E0CE
:1051E0004FF0807340F8043C21F0010140F8081CA6
:1051F000034B40F80C3C40F8202C4038704700BF6F
:1052000081510008000000000000000000000000C4
:10521000074B19680868B0E8F00F80F30988BFF3FE
:105220006F8F4FF0000080F311884EF00D0E704725
:10523000A40000204FF0500383F31188BFF36F8F59
:10524000BFF34F8F0A4A136801331360012B00D05C
:105250007047084B1B6813F0FF0FF9D04FF0500355
:1052600083F31188BFF36F8FBFF34F8FFEE700BF4B
:105270000C00002004ED00E0094B1B6843B94FF01F
:10528000500383F31188BFF36F8FBFF34F8FFEE797
:10529000013B034A13600BB983F31188704700BFC9
:1052A0000C000020000000000000000000000000D2
:1052B000EFF30980BFF36F8F0D4B1A6820E9F00FF1
:1052C00010602DE908404FF0500080F31188FEF780
:1052D00035FE4FF0000080F31188BDE808401968E2
:1052E0000868B0E8F00F80F30988BFF36F8F70474C
:1052F000A400002008B54FF0500383F31188BFF3DA
:105300006F8FBFF34F8FFEF7EBFC18B1034B4FF0DD
:1053100080521A60002383F3118808BD04ED00E079
:10532000084A0023136008490B60084B1B680849B2
:10533000A1FB03139B09013B06490B600723136084
:10534000704700BF10E000E018E000E00800002017
:10535000D34D621014E000E010B582B0274B1A78EC
:10536000D2B20192FF221A701B78DBB28DF80330A3
:105370009DF8033003F05003214A1370214B07229C
:105380001A609DF8033013F0800F0AD01D4A13688D
:10539000013B13609DF803305B00DBB28DF80330F6
:1053A000EFE7184B1B68032B08D04FF0500383F333
:1053B0001188BFF36F8FBFF34F8FFEE71B0203F41B
:1053C000E063104A1360019BDBB20C4A13700E4B72
:1053D0001A6842F470021A601A6842F070421A6049
:1053E000FFF79EFF0024094B1C60FFF7E9FEFEF764
:1053F000A5FDFFF7C5FE204602B010BD00E400E0A9
:10540000A0350020A435002020ED00E00C00002095
:10541000EFF305830F2B0FD9104A9B5CDBB2104AC8
:1054200012789A4208D94FF0500383F31188BFF3E2
:105430006F8FBFF34F8FFEE70A4B1B6803F4E063E7
:10544000094A1268934208D94FF0500383F3118838
:10545000BFF36F8FBFF34F8FFEE77047F0E300E0BD
:10546000A03500200CED00E0A4350020002800F05D
:10547000A18038B5044690F82030D3B12268136873
:1054800023F002031360FCF7AFFA054623685A685D
:1054900012F0020F10D0FCF7A7FA401B0A28F5D92A
:1054A000636A43F400336362052384F820300120EB
:1054B00038BDFBF789FFE1E71A6842F001021A6084
:1054C000FCF792FA054623685A6812F0010F0DD1D5
:1054D000FCF78AFA401B0A28F5D9636A43F40033C3
:1054E0006362052384F820300120E1E7227E012A4F
:1054F0003DD01A6822F080021A60637E012B3BD0F7
:105500002268136823F040031360A37E012B39D077
:105510002268136823F020031360E37E012B37D049
:105520002268136843F010031360237F012B35D0EA
:105530002268136823F008031360637F012B33D0C4
:105540002268136823F004031360A368E26813431E
:1055500022691343626913436268013A2168134365
:10556000CB6100206062012384F82030A0E71A6834
:1055700042F080021A60C0E72268136843F04003DB
:105580001360C2E72268136843F020031360C4E786
:105590002268136823F010031360C6E722681368BB
:1055A00043F008031360C8E72268136843F004035C
:1055B0001360CAE701207047026890F82030013B71
:1055C000DBB2012B05D9436A43F4802343620120F7
:1055D000704770B4D2F8003243F00103C2F80032D1
:1055E0004B6903F01F03012000FA03F3D2F81C02F9
:1055F000DC4320EA0300C2F81C02C869A8B9D2F84B
:105600000C022040C2F80C02CE688D88486945EA39
:105610000645483042F830508E680D88486945EAA2
:105620000645483002EBC0004560C869012819D022
:10563000886970BBD2F804022040C2F804020869ED
:1056400068BBD2F814020440C2F81442096A012966
:105650002BD0D2F8003223F00103C2F80032002030
:1056600070BC7047D2F80C021843C2F80C020E68E6
:105670008D88486945EA0645483042F830508E68C2
:105680008D89486945EA0645483002EBC00045600F
:10569000CEE7D2F804021843C2F80402CFE7D2F8EA
:1056A00014021843C2F81402D0E7D2F81C120B43BC
:1056B000C2F81C32CDE770B5044690F82050EDB228
:1056C000012D06D0436A43F4002343620125284696
:1056D00070BD022380F820300268136823F00103B4
:1056E0001360FCF781F9064623685B6813F0010F2D
:1056F0000CD0FCF779F9831B0A2BF5D9636A43F4C4
:1057000000336362052384F82030E0E700256562FA
:10571000DDE770B490F820400568AD68013CE4B264
:10572000012C65D815F0E05F5CD0C5F30164022C54
:1057300005D9436A43F40003436201205DE001257B
:10574000A5401D608B68002B39D10E68CB680568B9
:1057500043EA465604F118031B01EE5003680D6935
:1057600004F1180603EB06135D600B7D012B31D0AD
:10577000D17993791B0443EA0163517943EA012308
:10578000157901682B4301EB0411C1F88C31D178F4
:1057900093781B0443EA0163517843EA01231178AB
:1057A00002680B4302EB0412C2F888310268183415
:1057B0002401135943F00103135100201DE04D68EB
:1057C00043EAC503CD6806682B4304F118052D0193
:1057D0007351C3E7036803EB0613596841F4807102
:1057E0005960C5E7436A43F400134362012004E0B3
:1057F000436A43F480234362012070BC704790F8F1
:105800002030013BDBB2012B01D900207047036837
:10581000986810F0806000D001209A6812F0006F44
:1058200000D001309B6813F0805FEFD001307047EB
:1058300030B490F82040013CE4B2012C00F2918099
:1058400051B90468E46814F0030F10D1436A43F4BB
:1058500000134362012089E00468246914F0030FF7
:1058600005D1436A43F40013436201207EE00568DA
:1058700001F11B0424012C5904F004049460002C51
:1058800061D1056801F11B0424012C59640D1460D9
:10589000056801F11B0424012D5905F00205D560AE
:1058A000056825446D6805F00F05156105682544F8
:1058B0006D68C5F30725956105682C446468240C60
:1058C0005461026802EB0112D2F8B8211A70026822
:1058D00002EB0112D2F8B821C2F307225A70026813
:1058E00002EB0112D2F8B821C2F307429A700268A3
:1058F00002EB0112D2F8B821120EDA70026802EB44
:105900000112D2F8BC211A71026802EB0112D2F81E
:10591000BC21C2F307225A71026802EB0112D2F8CD
:10592000BC21C2F307429A71026802EB0112D2F85D
:10593000BC21120EDA7171B90268D36843F02003FA
:10594000D360002012E0056801F11B0424012C59EA
:10595000E40854609CE70268136943F02003136174
:10596000EFE7436A43F480234362012030BC704771
:1059700090F82030013BDBB2012B05D9436A43F498
:1059800080234362012070470268536919435161C3
:1059900000207047704770477047704770477047E6
:1059A0007047704770477047704770472DE9F84F50
:1059B000054603685C69D3F804809F68D3F80CB08F
:1059C000D3F810A0D3F8189014F001063BD017F0CC
:1059D000010616D001229A6017F0020F08D117F0C5
:1059E000040F0CD117F0080606D04FF4805608E0DB
:1059F000FFF7D0FF002604E0FFF7CFFF01E04FF4F0
:105A0000006617F4807F0DD02B684FF480729A6087
:105A100017F4007F40F0868017F4806F00F08680D6
:105A200046F4005617F4803F0DD02B684FF48032B7
:105A30009A6017F4003F40F0838017F4802F00F045
:105A4000838046F4004614F0080F07D01BF0100FB7
:105A500004D046F400762B681022DA6014F0040FAC
:105A600002D01BF0080F79D114F0020F04D02B687C
:105A7000DB6813F0030F78D114F0400F07D01AF051
:105A8000100F04D046F480662B6810221A6114F0BF
:105A9000200F02D01AF0080F6BD114F0100F04D0B1
:105AA0002B681B6913F0030F6AD114F4003F02D076
:105AB00018F0100F68D114F4803F02D018F0080FCE
:105AC00069D114F4004F7AD018F0040F74D014F494
:105AD000807F04D019F0010F01D046F0010614F4C4
